:020000040800F2
:10000000F8070020010100086B310008752B00087B
:100010006931000843080008314000080000000072
:10002000000000000000000000000000793500081A
:1000300019110008000000004B340008D9350008F1
:100040001B0100081B0100081B0100081B01000820
:100050001B0100081B0100081B0100081B01000810
:100060001B0100081B0100081B0100081B01000800
:100070001B0100081B0100081B0100081B010008F0
:100080001B0100081B0100081B0100081B010008E0
:100090001B0100081B0100081B0100081B010008D0
:1000A0001B010008993600081B0100081B0100080D
:1000B0001B0100081B0100081B0100081B010008B0
:1000C0001B0100081B0100081B0100081B010008A0
:1000D0001B0100081B010008254000081B01000847
:1000E0001B0100081B0100081B010008DFF80CD0F1
:1000F00000F0ECFA00480047E5500008F80700203F
:100100000648804706480047FEE7FEE7FEE7FEE7B1
:10011000FEE7FEE7FEE7FEE7FEE7FEE751360008F2
:10012000ED000008202A04DB203A21FA02F0002129
:10013000704721FA02F3D040C2F1200291400843F7
:100140001946704740EA01039B0703D009E008C93C
:10015000121F08C0042AFAD203E011F8013B00F88C
:10016000013B521EF9D27047F0B480EA0102D40F6D
:100170004200B2EB410F02D20246084611464A0045
:1001800042D0C30DDDB2C1F3C752AD1A202D35DA0E
:10019000C1F3160141F4000204B15242C5F1200638
:1001A00002FA06F12A411044B3EBD05F23D0C4B168
:1001B000012DA0EBC35009DCF0BC4FF0004202EA75
:1001C000C352DBB200F5000000F09AB8400000F125
:1001D000807000EBC350A0F1807040EAD1704900FC
:1001E00009E0490841EAC071A0EBC35000F50000E6
:1001F000400800EBC350F0BC00F079B86142012226
:1002000002EB4101001BF6E7F0BC704781F00041B2
:10021000AAE780F00040A7E7420005D0C0F3C7522C
:100220005242914201DC0020704700EBC150704700
:1002300096230022114600F063B800F0004230F02F
:1002400000400AD0C10D01F56071C0F3160042EA0A
:100250000151C20840071143704700200146704712
:1002600030B50B46014600202022012409E021FA86
:1002700002F59D4205D303FA02F5491B04FA02F583
:100280002844151EA2F10102F1DC30BD2DE9F05F1A
:100290000546002092469B468846064681464024F5
:1002A0001BE02846414647462246FFF73BFF5346A0
:1002B0005A46C01A914110D311461846224600F002
:1002C00017FA2D1A67EB01084F462246012000213C
:1002D00000F00EFA17EB00094E41201EA4F10104B4
:1002E000DFDC484631462A464346BDE8F09F0029F8
:1002F000A8BF7047401C490008BF20F001007047AC
:1003000010B4B0FA80FC00FA0CF050EA010404BF0B
:1003100010BC704749B1CCF1200421FA04F411FA61
:100320000CF118BF012121430843A3EB0C01CB1DA5
:100330004FEA00614FEA102042BF002010BC704716
:1003400000EBC35010440029A4BF10BC7047401CF0
:10035000490008BF20F0010010BC70472DE9FE4F96
:10036000804681EA0300C00F0C46009021F0004156
:1003700023F00045B8EB0200A94105D240462146D2
:1003800090461C460B46024623F00040104347D0DF
:10039000270DC7F30A00C3F30A510290401A0190D7
:1003A00040286BDAC3F3130040F4801B0098924698
:1003B00020B10023D2EB030A63EB0B0B01985946E3
:1003C000C0F14002504600F093F906460D465046F3
:1003D0005946019A00F09BF910EB08006141002496
:1003E00087EA115284EAE7731A4340D0009A62B355
:1003F000019A012A4FEA075215DC001B61EB02014A
:100400004FF0004202EA0752CDE90042001C41F5DC
:10041000801132462B4600F09BF903B0BDE8F08F07
:1004200040462146F9E7001B61EB0201001C41F543
:10043000801300185B412018A2F5001747EB030159
:1004400040EAD570B6196D4111E06D084FEA3606E5
:1004500045EAC0754FEA0752001B61EB0201001C20
:1004600041F5801149084FEA3000001951413246E8
:100470002B4603B0BDE8F04F00F05BB900980122B5
:1004800040000023D0EB020263EBE07300982146AA
:100490004FEAE074B8EB000061EB0401E9E783F098
:1004A00000435BE781F0004158E72DE9FE4F81EA08
:1004B000030404F0004421F0004100944FF0000BCD
:1004C00023F0004350EA01045ED052EA03045BD0FB
:1004D000C3F30A54C1F30A552C44A4F2F334019433
:1004E000A0FB0254C1F3130141F48011C3F31303C1
:1004F00043F4801301FB024400FB034E840A970A75
:1005000044EA815447EA8357A4FB076802958D0AA1
:1005100005FB07854FEA932C04FB0C542705029D2D
:100520004FEA065847EA1637B5EB08056EEB070C9D
:10053000870E920E47EA811742EA8312A7FB020157
:10054000B6EB0B0164EB00042B0D43EA0C335E1891
:1005500044EB1C50DA465146E7FB0201C5F3130495
:100560004FEA0B3343EA14534FEA0432019C43EA47
:100570000603A4F10C040294009CCDE900B400F041
:10058000E7F803B0BDE8F08F00200146F9E72DE958
:10059000F04D81EA030404F0004B21F000451446BD
:1005A0004FF0000A23F0004150EA050220D054EA3F
:1005B00001021DD0C5F30A570246C5F31303C1F368
:1005C0001300C1F30A5640F4801543F48013A7EBDF
:1005D0000608101BD64608F2FD3873EB050002D35F
:1005E00008F1010801E092185B41B8F1000F03DA4D
:1005F00000200146BDE8F08D00204FF48011064632
:1006000084460EE0171B73EB050705D3121B63EB43
:10061000050306434CEA010C49084FEA30009218E2
:100620005B4150EA0107EDD152EA030012D082EAA1
:10063000040083EA0501084305D0101BAB4106D234
:100640000122002306E000224FF0004302E06FF099
:10065000010253101AEB06004CEB085110EB0A0094
:1006600041EB0B01BDE8F04D00F063B8C1F30A5255
:10067000C1F3130140F2FF3341F480119A4202DAD0
:1006800000200146704740F233439A42A2F23342BF
:1006900002DC5242FFF746BD00F02AB830B5041E16
:1006A00071F1000404DB4FF00044404264EB0101AF
:1006B000141E73F1000405DB1C464FF00043524248
:1006C00063EB0403994208BF904230BD064C074DCE
:1006D00006E0E06840F0010394E807009847103412
:1006E000AC42F6D3FFF706FD1C5900083C59000840
:1006F000202A04DB203A00FA02F1002070479140E2
:10070000C2F1200320FA03F3194390407047202AD6
:1007100006DBCB17203A41FA02F043EAE07306E029
:1007200041FA02F3D040C2F1200291400843194639
:10073000704710B5141E73F1000408DA401C41F133
:10074000000192185B411A4301D120F0010010BD55
:100750002DE9F04D92469B4611B1B1FA81F202E0CB
:10076000B0FA80F220329046FFF7C2FF04460F46EF
:1007700040EA0A0041EA0B0153465A46084313D0A7
:10078000114653EA010019D0C8F140025046FFF764
:10079000C9FC05460E46504659464246FFF7A8FF9B
:1007A000084305D0012004E020463946BDE8F08D1D
:1007B0000020054346EAE0762C4337430A98630558
:1007C000E40AA0EB08000022FD0A44EA47540A307C
:1007D00002D500200146E9E7010510196941DDE96C
:1007E000084500196941BDE8F04DA2E770B58C18C5
:1007F00010F8015B15F0070301D110F8013B2A1135
:1008000006D110F8012B03E010F8016B01F8016B21
:100810005B1EF9D12B0705D40023521E0DD401F81D
:10082000013BFAE710F8013BCB1A921C03E013F8E6
:10083000015B01F8015B521EF9D5A142D8D300201B
:1008400070BDFEE770B5054602F0AAF90A4C0DB17D
:10085000012200E000228021204600F0D1FE01228A
:100860004021204600F0CCFE2046BDE8704000222A
:10087000402100F0C5BE0000000C014070B5144ED0
:10088000002401228021304600F0BAFE02F074F903
:1008900000256006040E01224021304600F0B0FE23
:1008A0008021304600F080FE08B144F001040022AF
:1008B0004021304600F0A4FE6D1CEDB2082DE8D3B7
:1008C00000224021304600F09BFE204670BD000013
:1008D000000C014010B502F063F90B4C012280219D
:1008E000204600F08DFE01224021204600F088FEC7
:1008F00000228021204600F083FE20460022BDE831
:100900001040402100F07CBE000C014010B502F008
:1009100047F9094C00228021204600F071FE002298
:100920004021204600F06CFE20460122BDE8104028
:10093000802100F065BE0000000C01402DE9F0416F
:100940000546002702F02CF91A4E0024280601D58E
:10095000012200E000228021304600F051FE0122F9
:100960004021304600F04CFE00224021304600F08D
:1009700047FE6806641C050EE4B2082CE6D301228B
:100980008021304600F03CFE02F0F6F801224021C2
:10099000304600F035FE8021304600F005FE40EA8A
:1009A000070400224021304600F02AFE2046BDE820
:1009B000F0810000000C01402DE9F04115460C4685
:1009C00006460BB3FFF786FFD020FFF7B7FF70BBDB
:1009D0003046FFF7B3FFFFF77DFFD120FFF7AEFFF3
:1009E00000266F1E0DE000BFFFF748FF2070BE42DB
:1009F00001D1012000E00020FFF724FF761CF6B2B1
:100A0000641CAE42F0D312E0FFF764FFD020FFF782
:100A100095FF60B93046FFF791FF002605E020788A
:100A2000FFF78CFF761CF6B2641CAE42F7D3BDE82C
:100A3000F041FFF76BBF00001CB5564CE8B3012333
:100A4000072269460020FFF7B7FF9DF8000000F07D
:100A50000F01C0F3021000EB800001EB4000A07119
:100A60009DF8010000F00F01C0F3021000EB8000C0
:100A700001EB400060719DF8020000F00F01C0F32F
:100A8000021000EB800001EB400020719DF8030094
:100A900000F00F01C0F3021000EB800001EB4000FA
:100AA000A0709DF8040000F00F01C0F3021000EBED
:100AB000800001EB4000E07000E016E09DF80500CA
:100AC00000F00F01C0F3021000EB800001EB4000CA
:100AD00060709DF8060000F00F01C0F3021000EBFB
:100AE000800001EB400020701CBDA1790A20B1FB01
:100AF000F0F200FB1212B1FBF0F142EA01118DF8A5
:100B0000001061790023B1FBF0F200FB1212B1FB7F
:100B1000F0F142EA01118DF801102179B1FBF0F2F8
:100B200000FB1212B1FBF0F142EA01118DF8021044
:100B3000A178B1FBF0F200FB1212B1FBF0F142EA36
:100B400001118DF80310E178B1FBF0F200FB1212F5
:100B5000B1FBF0F142EA01118DF804106178B1FBAC
:100B6000F0F200FB1212B1FBF0F142EA01118DF834
:100B700005102178B1FBF0F200FB1212B1FBF0F08E
:100B800042EA00108DF80600072269461846FFF772
:100B900013FF1CBD4303002010B50446FFF79AFE67
:100BA000D020FFF7CBFE68B92046FFF7C7FEFFF75E
:100BB00091FED120FFF7C2FEFFF760FE0446012040
:100BC000FFF740FEFFF7A2FE204610BD70B50546B8
:100BD0001120FFF7E1FF04461220FFF7DDFF800937
:100BE000210606D5C043E143401CCCB2C0B22D2142
:100BF00000E020212970FFF71BFB6FF00101FFF7D8
:100C00000BFB06462046FFF713FB3146FFF7ACFA15
:100C1000FFF713FB02462846BDE870400B4601A1D2
:100C200003F0BABD25322E326600000070B5A24D29
:100C30008AB0287B30B90120287311229F49A0482F
:100C4000FFF780FA9E4C9FA1E078009063782278AD
:100C500001A803F0A1FD0C2301AA0321002002F04A
:100C6000D3FBE87A052829D2DFE800F003061F222B
:100C700025000C2398A201E00C239BA20421002054
:100C800002F0C2FBE87A04281DD905284FF00C03B6
:100C900017D099A20721002002F0B6FB687B00283C
:100CA00002D004F0FDF988B1E7E00C2396A2E5E755
:100CB0000C2399A2E2E70C239BA2DFE70C239EA260
:100CC000DCE7A1A2E6E70C23A3A2E3E7697B0A2005
:100CD000062918D2DFE801F0D1034B889BAFE97AEF
:100CE000052910D2DFE801F003101F273400217816
:100CF000A1F15A020A2A04D2B1FBF0F200FB121150
:100D000000E00A312170B8E02178B1FBF0F200FB7D
:100D10001212092A01D0491CF4E7B1FBF0F000EBF4
:100D200080004100EEE760780C2801D2401C00E012
:100D300001206070A1E0E178A1F11E020A2A04D22C
:100D4000B1FBF0F200FB121100E00A31E17094E017
:100D5000E178B1FBF0F200FB1212092A01D0491C24
:100D6000F4E7B1FBF0F000EB80004100EEE7E97A38
:100D700005290BD2DFE801F0030B1A2129002078A6
:100D80000A2801D25A3000E00A38207075E0217834
:100D9000B1FBF0F200FB12120AB1491EB2E7B1FB3F
:100DA000F0F000EB800041000931ABE760780128EA
:100DB00001D9401EBDE70C20BBE7E0780A2801D22C
:100DC0001E3000E00A38E07057E0E178B1FBF0F245
:100DD00000FB12120AB1491EB8E7B1FBF0F000EBBC
:100DE000800041000931B1E7E87A08B1401E00E017
:100DF0000620E87202E000BF01F09CFF04F050F909
:100E00000128F9D004F04CF90328F5D035E0E87A50
:100E1000062801D2401C00E00020E87202E000BF7A
:100E200001F088FF04F03CF90228F9D004F038F909
:100E30000428F5D021E0E87A0026052802D006280B
:100E400014D10DE002F0F6FE1C48217801706178A3
:100E50004170E178C1700020FFF7EEFD6E7001E097
:100E6000022068702E7301E001F064FF04F018F9AD
:100E70000528F9D002F0D0F9EE7204F011F9687388
:100E8000E0781F2801D91F20E070607802280ED07A
:100E9000042805D0062803D0092801D00B2804D146
:100EA000E0781E2801D91E20E0700AB070BDE078FD
:100EB0001D28FAD91D20F7E7000000204303002079
:100EC0002103002020203230253032642F2530329B
:100ED000642F253032640000202020205E20202056
:100EE000202020202000000020202020205E202024
:100EF0002020202020000000202053617665202043
:100F0000202D3E4261636B002020202020202020E5
:100F10005E202020200000002020202020202020F3
:100F200020205E20200000002020202020202020E3
:100F30002020205E200000002020202020202020D3
:100F400020202020200000002D3E536176652020C7
:100F50002020204261636B002020536176652020B1
:100F60002020204261636B0070B54C4C8AB0A07B9E
:100F700030B90120A073112249494A48FFF7E2F82D
:100F8000484D49A1A87900906B792A7901A803F00E
:100F900003FCAA7849A101A803F0FEFB0C2301AAD7
:100FA0000321002002F030FAE07B4FF00C03C0B1C7
:100FB00045A20421002002F027FAE07BA8B1012815
:100FC0004FF00C030FD044A20721002002F01CFABE
:100FD00004F066F806281AD2DFE800F0190A142295
:100FE000314141A2E5E744A2EEE70C2346A2EBE73C
:100FF000E07B48B9A878072802D0401CA87003E01D
:101000000120FBE7E07B20B1C82000F027F90AB0FF
:1010100070BDA878012801D0401EEFE70720EDE75A
:10102000E07B08B1401E00E00220E07302E000BF58
:1010300001F080FE04F034F80128F9D0E7E7E07B06
:10104000022801D2401C00E00020E07302E000BF53
:1010500001F070FE04F024F80428F9D0D7E7E07B13
:101060000026012802D0032810D109E002F0E2FD99
:101070000B49A87888700020FFF7DEFC667001E05D
:1010800002206070A67301E001F054FE04F008F83D
:101090000528F9D002F0C0F8E673B8E70000002098
:1010A000430300203203002020202020253032641A
:1010B0003A253032643A2530326400002020202066
:1010C0005765656B3A2564002020202020202020D1
:1010D0002020202020000000202053617665202061
:1010E000202D3E4261636B00202020202020202004
:1010F000205E2020200000002D3E536176652020D8
:101100002020204261636B002020536176652020FF
:101110002020204261636B007047000070B51E4CB8
:101120001E4E1425A179B07881420BD0401E90FB51
:10113000F5F105FB1100401CC0B2002103F04CF892
:10114000A079B070A079401E90FBF5F105FB11006D
:10115000401CC0B2012103F03FF8F0783B2817D1C2
:10116000A079A8B90125E8B2012103F035F81420CF
:1011700000F074F86D1C152DF5DB0125E8B2002197
:1011800003F02AF8142000F069F86D1C152DF5DB2A
:10119000A079F07070BD0000430300200000002023
:1011A00010B500F063FA064C6169401A642806D94C
:1011B00000F05CFA6061BDE8104002F03BBD10BD7C
:1011C0000000002010B590F821100024022903D05F
:1011D0000421816301243DE001680A6822F00E02C7
:1011E0000A6001680A6822F001020A601A4A01686E
:1011F000914201D1012121E0174A1432914201D1DB
:1012000010211BE0144A2832914201D1891515E0C2
:10121000114A3C32914201D189140FE00E4A5032FA
:10122000914202D14FF4803108E00B4A643291427E
:1012300002D14FF4801101E04FF08071064A083A64
:101240005160012180F82110002180F82010416BAD
:1012500001B18847204610BD0800024070B5044621
:1012600000F004FA0546601C02D0044800780444EB
:1012700000F0FCF9401BA042FAD370BD80020020B0
:101280002DE9F84FDFF8A8B20D4604464FF00009EB
:1012900058450FD0A74884420CD0A748844209D0B3
:1012A000A648844206D0A648844203D0CD21A5A0FA
:1012B00003F0F4FE28680104090C01D0000C03D0EF
:1012C000CE21A0A003F0EAFE6868F8B101281DD085
:1012D00011281BD0022819D0122817D0A8498842FB
:1012E00014D0A849884211D0A74988420ED0A749F6
:1012F00088420BD0A649884208D0A649884205D02A
:10130000032803D0CF218FA003F0C8FE00274FF0A1
:10131000010A00BF2E680AFA07F806EA08064645E1
:101320006FD15C450FD0834884420CD08248844200
:1013300009D08248844206D08148844203D0DD210E
:1013400080A003F0ABFE8E4869680A1A814259D02A
:101350000EDC032976D006DC002953D0012919D0F0
:1013600002296AD131E0112921D0122965D13AE050
:10137000B2F5881F46D006DCB2F5803F42D0B2F508
:10138000801F5AD13EE0B2F5001F3BD0B2F5041FDA
:1013900053D137E0E868022807D0012805D0032898
:1013A00003D0E52167A003F079FEE8683FE0E86834
:1013B000022807D0012805D0032803D0EC2161A022
:1013C00003F06CFEE868001D31E0E868022807D0F1
:1013D000012805D0032803D0F3215AA003F05EFEB4
:1013E000E868083023E0E868022807D0012805D023
:1013F000032803D0FA2153A003F050FEE8680C3014
:1014000015E089E0A86888B1012812D0022808D028
:1014100040F207114BA003F041FEA86830B101284B
:1014200007D04FF00809C4F8148006E00420814674
:1014300003E04FF00809C4F81080FF2E05D82246BB
:1014400005E0FFE74FF00000F1E704F104024FEA86
:10145000870001D9A0F1200013684FF00F0101FAB5
:1014600000FC23EA0C0309FA00FC43EA0C031360B6
:101470006868C00056D54848826942F0010282611E
:10148000806927F0030200F0010000904348024405
:101490009068BB071B0F994088435C4501D1002130
:1014A0000FE024498C4201D101210AE022498C42FB
:1014B00001D1022105E021498C4201D1032100E044
:1014C00004219940014391606868C0033448016871
:1014D00001D5314300E0B1430160686880033148C1
:1014E000016801D5314300E0B14301606868C00282
:1014F00005D52C48001D01683143016004E02949ED
:10150000091D0868B04308606868800205D5254950
:10151000083108683043086004E022480830016858
:10152000B14301607F1C102FFFF4F4AEBDE8F88FCB
:1015300000080140000C014000100140001401406F
:10154000001801402E2E2F447269766572732F5356
:10155000544D3332463178785F48414C5F4472696C
:101560007665722F5372632F73746D3332663178E0
:10157000785F68616C5F6770696F2E6300000000C0
:1015800000001110000021100000311000001210A6
:101590000000221000003210001002400000014044
:1015A000000401400404014070B50C00054604D15C
:1015B00040F2C31103A003F071FDA868204000D0E1
:1015C000012070BD2E2E2F447269766572732F53E1
:1015D000544D3332463178785F48414C5F447269EC
:1015E0007665722F5372632F73746D333266317860
:1015F000785F68616C5F6770696F2E630000000040
:1016000070B515460C00064604D140F2E31108A05F
:1016100003F044FD45B1012D04D04FF4F27104A054
:1016200003F03CFD346170BD2004306170BD0000EA
:101630002E2E2F447269766572732F53544D3332B8
:10164000463178785F48414C5F4472697665722F05
:101650005372632F73746D3332663178785F6861CB
:101660006C5F6770696F2E6300000000014880683E
:10167000704700008002002002488168027811440F
:101680008160704780020020074810B5016841F072
:1016900010010160032000F0F1F8002000F006F8CE
:1016A00000F024F8002010BD0020024070B50D4D60
:1016B00004464FF47A712878B1FBF0F00A490968C2
:1016C000B1FBF0F000F015FD48B9102C07D2002254
:1016D0002146501E00F082F800206C6070BD012091
:1016E00070BD0000800200208C020020214808B557
:1016F000816941F001018161816901F0010100917D
:10170000C16941F08051C161C06900F08050009012
:10171000032000F0B3F8002211466FF00B0000F038
:101720005DF8002211466FF00A0000F057F8002221
:1017300011466FF0090000F051F800221146501FC9
:1017400000F04CF800221146101F00F047F800226C
:101750001146901E00F042F800221146501E00F083
:101760003DF80548416821F0E06141F08061416049
:1017700008BD0000001002400000014010B5040048
:1017800003D5CE2106A003F089FC04F01F0101203F
:1017900088406109890001F1E021C1F8000110BD14
:1017A0002E2E2F447269766572732F53544D333247
:1017B000463178785F48414C5F4472697665722F94
:1017C0005372632F73746D3332663178785F68615A
:1017D0006C5F636F727465782E63000070B5154698
:1017E0000C460646102A03D3BA2114A003F056FC77
:1017F000102C03D3BB2111A003F050FC1E4800683D
:10180000C0F30223C3F107022046042A00D90422B0
:10181000191D072901D2002300E0DB1E012404FA70
:1018200002F1491E014099409C40641E2C40214316
:101830003046BDE8704001F099BC00002E2E2F44C8
:101840007269766572732F53544D3332463178780E
:101850005F48414C5F4472697665722F5372632F03
:1018600073746D3332663178785F68616C5F636F73
:10187000727465782E6300000CED00E010B504462C
:1018800007280BD0062C09D0052C07D0042C05D036
:10189000032C03D0A22108A003F000FC154904F09A
:1018A000070208684FF6FF03184040EA0220124A78
:1018B0001043086010BD00002E2E2F44726976651B
:1018C00072732F53544D3332463178785F48414C10
:1018D0005F4472697665722F5372632F73746D3330
:1018E00032663178785F68616C5F636F72746578B7
:1018F0002E6300000CED00E00000FA052DE9F04732
:101900000E46050004D140F22E3181A003F0C6FB43
:101910002868C1070AD1810708D4410706D4000707
:1019200004D440F22F317AA003F0B8FB46B1012E67
:1019300006D0022E04D04FF44C7175A003F0AEFB1C
:10194000DFF80482D8F8000000F00700B0420CD2A3
:10195000D8F8001021F007013143C8F80010D8F87A
:10196000000000F00700B04272D12878774C800761
:101970001CD5A868A0B1802812D0902810D0A0282B
:101980000ED0B0280CD0C0280AD0D02808D0E0282B
:1019900006D0F02804D040F249315DA003F07EFB70
:1019A0006068A96820F0F000084360602878C007EC
:1019B00053D0686868B1012821D0022822D04FF4A2
:1019C000547153A003F06AFB6868012817D00228FD
:1019D00018D020688007002850DA6068696820F015
:1019E000030008436060FFF741FE6968074641F263
:1019F0008830012910D0022981461AD029E02068B8
:101A00008003E8E720688001E5E700BFFFF72EFECE
:101A1000C11B494501D918E081466068C0F38100C7
:101A20000128F3D119E000BFFFF720FEC11B494593
:101A30000BD86068C0F381000228F5D10DE000BF2B
:101A4000FFF714FEC11B494503D90320BDE8F08709
:101A500014E0606810F00C0FF2D1D8F80010404686
:101A600001F00701B1420BD9016821F007013143B0
:101A70000160006800F00700B04201D00120E5E7F6
:101A800028784FF4806640074FF4A0674FF4C06891
:101A90004FF4E06914D5E86860B1B0420AD0B842AA
:101AA00008D0404506D0484504D04FF4697118A0CD
:101AB00003F0F4FA6068E96820F4E06008436060CD
:101AC0002878000715D5286960B1B0420AD0B8421D
:101AD00008D0404506D0484504D040F2AB310CA0B8
:101AE00003F0DCFA6068296920F4605040EAC10024
:101AF000606000F057F86168154AC1F30311515C4A
:101B0000C840144908600020FFF7D0FD00209DE781
:101B10002E2E2F447269766572732F53544D3332D3
:101B2000463178785F48414C5F4472697665722F20
:101B30005372632F73746D3332663178785F6861E6
:101B40006C5F7263632E630000200240001002404D
:101B5000025900088C02002001480068704700000C
:101B60008C0200200448054900684968044AC1F312
:101B70000221515CC84070478C02002000100240D6
:101B8000125900080448054900684968044AC1F32D
:101B9000C221515CC84070478C02002000100240F6
:101BA0001259000812A185B00FC98DE80F0014A0CA
:101BB000144A006804905168134801F00C03042B88
:101BC00010D0082B0ED1C1F38343C9031DF80300C5
:101BD0000AD5516804AAC1F34041515C0A4A5043F6
:101BE000B0FBF1F005B0704708494843FAE7000040
:101BF00002030405060708090A0B0C0D0E0F10104E
:101C0000010200000010024000127A0000093D00AD
:101C10002DE9F84F040004D14FF4B871F4A003F09B
:101C20003DFA4FF0010A4FF000084FF48039FE4EA4
:101C3000FE4D206860B1C1070DD1810763D4010753
:101C40007ED440077DD440F27111E9A003F026FA5A
:101C50002078C00754D060684FF4A02740B14845B1
:101C600006D0B84204D040F27711E1A003F016FA92
:101C70006868C0F38100012807D06868C0F381005C
:101C8000022809D16868C00306D52868800337D5C3
:101C90006068002876D033E06068484503D1286842
:101CA00040F4803009E008B1B8420DD0286820F433
:101CB00080302860286820F480202860606890B117
:101CC000FFF7D4FC07460AE0286840F4802028602B
:101CD000E5E700BFFFF7CAFCC01B642877D8286877
:101CE0008003F7D50CE0FFF7C1FC074605E000BF15
:101CF000FFF7BCFCC01B6428F0D828688003F7D429
:101D0000207880074ED5206930B1012804D040F2F8
:101D1000AB11B7A003F0C2F960691F2804D94FF4D2
:101D2000D671B3A003F0BAF9686810F00C0F0AD0AE
:101D30006868C0F3810002280CD16868C00301E024
:101D400033E06CE006D42868800713D520690128A9
:101D500018D10FE02069B0B1C6F800A0FFF786FCEB
:101D6000074604E0FFF782FCC01B0228B6D82868AB
:101D70008007F7D52868616920F0F80040EAC100C3
:101D800028600FE033E1C6F80080FFF76FFC0746DC
:101D900005E000BFFFF76AFCC01B02289ED8286838
:101DA0008007F7D42078000736D5A14FA06920B36B
:101DB000012806D04FF4F6718DA003F06FF9A069E9
:101DC000D8B1C7F800A0FFF751FC074605E052E183
:101DD000FFF74CFCC01B02288ED8686A8007F7D535
:101DE00094484FF4FA510068B0FBF1F0009000BF46
:101DF0000098411E0091FAD20EE0C7F80080FFF76C
:101E000035FC074605E000BFFFF730FCC01B022889
:101E1000ACD8686A8007F7D4207840076CD5E068B2
:101E2000002740B1012806D0052804D040F21B212C
:101E30006FA003F033F9E869C00008D4E86940F006
:101E40008050E861E869012700F0805000907A48EE
:101E50000168C90512D4016841F480710160FFF77F
:101E600005FC834606E000BFFFF700FCA0EB0B007B
:101E7000642893D870480068C005F5D5E06801284B
:101E80000AD008B1052811D0286A20F00100286284
:101E9000286A20F0040002E0286A40F0010028626D
:101EA000E068A8B1FFF7E2FB83460DE0286A40F046
:101EB00004002862F0E700BFFFF7D8FBA0EB0B019E
:101EC00041F28830814287D8286A8007F4D50EE035
:101ED000FFF7CCFB834607E0FFF7C8FBA0EB0B0145
:101EE00041F28830814293D8286A8007F4D41FB128
:101EF000E86920F08050E861E069002876D0012888
:101F000009D0022807D040F2B92139A003F0C6F861
:101F1000E06900286AD06868C0F38100022866D0B2
:101F2000E069022805D0C6F86080FFF79FFB0446F1
:101F3000A4E0206A30B1484504D040F2C2212CA070
:101F400003F0ACF8606A70B3B0F5802F2BD0B0F519
:101F5000002F28D0B0F5402F25D0B0F5801F22D01B
:101F6000B0F5A01F1FD0B0F5C01F1CD0B0F5E01F0A
:101F700019D0B0F5001F16D0B0F5101F13D0B0F572
:101F8000201F10D0B0F5301F0DD0B0F5401F0AD083
:101F9000B0F5501F07D0B0F5601F04D040F2C32148
:101FA00013A003F07BF8C6F86080FFF75FFB0746DD
:101FB00005E000BFFFF75AFBC01B02285BD828686A
:101FC0008001F7D4206A48450FD1A06838B1B0F538
:101FD000003F04D040F2D92105A003F05FF8686803
:101FE000A16820F400300843686027E049E04AE037
:101FF0002E2E2F447269766572732F53544D3332EF
:10200000463178785F48414C5F4472697665722F3B
:102010005372632F73746D3332663178785F686101
:102020006C5F7263632E6300000042420010024046
:10203000800442428C02002000700040D4E9080174
:102040000843696821F4741108436860C6F860A009
:10205000FFF70CFB044604E0FFF708FB001B022817
:1020600009D828688001F7D50BE000BFFFF7FEFA1A
:10207000001B022802D90320BDE8F88F28688001E0
:10208000F4D40020F8E70120F6E7000010B54FF087
:10209000E024042809D020B140F2D91105A002F0B3
:1020A000FDFF206920F0040002E0206940F00400F8
:1020B000206110BD2E2E2F447269766572732F53E6
:1020C000544D3332463178785F48414C5F447269F1
:1020D0007665722F5372632F73746D333266317865
:1020E000785F68616C5F636F727465782E6300005F
:1020F000704710B5401EB0F1807F01D3012010BDA4
:102100004FF0E02460610F21601701F02FF80020EC
:10211000A06107202061002010BD10B5FFF7E8FF87
:1021200010BD70477047000070B50D46044600684A
:102130002A4988420DD0B0F1804F0AD02849884200
:1021400007D02849884204D04FF4C76126A002F086
:10215000A5FF286890B1102810D020280ED0302874
:102160000CD040280AD0502808D0602806D070280B
:1021700004D040F239611CA002F090FF686880280A
:1021800005D020B140F23A6117A002F087FF94F821
:102190003C0001281FD0012084F83C00022184F873
:1021A0003D1021684A6822F070024A6021684A683E
:1021B0002B681A434A6021688A6822F080028A608C
:1021C00021688A686B681A438A6084F83D000020A1
:1021D00084F83C0070BD022070BD0000002C01405E
:1021E00000040040000800402E2E2F4472697665DE
:1021F00072732F53544D3332463178785F48414CD7
:102200005F4472697665722F5372632F73746D33F6
:1022100032663178785F68616C5F74696D5F65788C
:102220002E63000010B5040036D02549206888428E
:102230000CD0B0F1804F09D02249884206D0224903
:10224000884203D0D52121A002F028FFA06858B110
:10225000102809D0202807D0402805D0602803D0B6
:10226000D6211AA002F01AFF206948B1B0F5807F8C
:1022700006D0B0F5007F03D0D72114A002F00EFFE6
:10228000A06928B1802803D0D82110A002F006FF51
:1022900094F83D0010B107E0012010BD002084F843
:1022A0003C00204600F02EF8022084F83D00211D5D
:1022B000206801F0FBF9012084F83D00002010BDEA
:1022C000002C014000040040000800402E2E2F4446
:1022D0007269766572732F53544D33324631787874
:1022E0005F48414C5F4472697665722F5372632F69
:1022F00073746D3332663178785F68616C5F7469CE
:102300006D2E630008B500680B49884212D10B4856
:10231000816941F4006181618069012200F40060FB
:10232000009011461920FFF759FABDE8084019201E
:10233000FFF724BA08BD0000002C01400010024045
:1023400010B5044600680E4988420DD0B0F1804FA8
:102350000AD00C49884207D00B49884204D040F289
:102360005D110AA002F09AFE2068C16841F00101E7
:10237000C1602068016841F001010160002010BDCA
:10238000002C014000040040000800402E2E2F4485
:102390007269766572732F53544D333246317878B3
:1023A0005F48414C5F4472697665722F5372632FA8
:1023B00073746D3332663178785F68616C5F74690D
:1023C0006D2E63002DE9F047044690F83C000D4661
:1023D00001283CD04FF0010984F83C90022084F899
:1023E0003D0028684FF480564FF40058B04215D095
:1023F000404513D090B1102810D020280ED030289E
:102400000CD040280AD0502808D0602806D0702868
:1024100004D040F65971C5A002F040FE20688168E2
:1024200021F0770121F47F418160CF492B68CD48AD
:10243000CE4ACF134FF0804C502B7DD00FDC202B99
:102440007BD007DC002B79D0102B78D13BE1022028
:10245000BDE8F087302B73D0402BF6D1F7E0602B2E
:102460006FD04FF4405A702B51D0B3423CD043450B
:10247000EBD1236883420AD0634508D08B4206D053
:10248000934204D040F68871A8A002F007FEA86825
:1024900050B1B04208D0404506D0504504D040F677
:1024A0008B71A2A002F0FAFD6868B84209D040B171
:1024B000022806D00A2804D040F68C719BA002F0B6
:1024C000EDFDE8680F2804D940F68D7197A002F061
:1024D000E5FDD5E90121EB68206801F01DF92068D0
:1024E000816841F4804153E0236883420AD0634508
:1024F00008D08B4206D0934204D040F665718BA081
:1025000002F0CCFD2068816821F0070140E02368DB
:1025100083420AD0634508D08B4206D0934204D050
:1025200040F66E7181A002F0B9FDA86888B1B04292
:102530000FD040450DD005E02CE0D5E0B2E080E0C2
:10254000E3E052E0504504D040F6717177A002F00C
:10255000A5FD6868B84209D040B1022806D00A2813
:1025600004D040F6727171A002F098FDE8680F285F
:1025700004D940F673716DA002F090FDD5E90121F8
:10258000EB68206801F0C8F82068816841F07701A5
:10259000816056E0236883420AD0634508D08B42AD
:1025A00006D0934204D040F69C7160A002F076FD04
:1025B0006868B84209D040B1022806D00A2804D081
:1025C00040F69F7159A002F069FDE8680F2804D910
:1025D0004FF47A6155A002F061FDEA6869682068ED
:1025E00001F0ACF85021206829E0236883420AD02A
:1025F000634508D08B4206D0934204D040F6AB71BD
:102600004AA002F04BFD6868B84209D040B10228E8
:1026100006D00A2804D040F6AE7144A002F03EFD78
:10262000E8680F2804D940F6AF7140A002F036FDEB
:10263000EA686968206801F092F86021206801F07A
:1026400075F884F83D90002084F83C0000E723688A
:1026500083420AD0634508D08B4206D0934204D00F
:1026600040F6BA7131A002F019FD6868B84209D08D
:1026700040B1022806D00A2804D040F6BD712BA034
:1026800002F00CFDE8680F2804D940F6BE7127A0BF
:1026900002F004FDEA686968206801F04FF8402103
:1026A0002068CCE7236883420AD0634508D08B4278
:1026B00006D0934204D040F6C9711CA002F0EEFC93
:1026C00000212068BBE7236883420AD0634508D015
:1026D0008B4206D0934204D040F6D17113A002F091
:1026E000DDFC10212068AAE7236883420AD06345F5
:1026F00008D08B4206D0934204D040F6D9710BA08B
:1027000002F0CCFC2021206899E7236883420AD09C
:10271000634508D08B4206D0934204D040F6E17165
:1027200002A002F0BBFC3021206888E72E2E2F4447
:102730007269766572732F53544D3332463178780F
:102740005F48414C5F4472697665722F5372632F04
:1027500073746D3332663178785F68616C5F746969
:102760006D2E6300002C0140000400400008004072
:10277000704770B50446006801694FF00005C94311
:10278000890715D4C168C943890711D4E91E0161BD
:1027900001202077206880698007204602D0FFF75B
:1027A000E7FF04E000F098F8204600F096F825775F
:1027B00020680169C943490717D4C168C94349075B
:1027C00013D46FF004010161022020772068806932
:1027D00010F4407F204602D0FFF7CAFF04E000F06B
:1027E0007BF8204600F079F8257720680169C94315
:1027F000090716D4C168C943090712D46FF008014C
:102800000161042020772068C0698007204602D03B
:10281000FFF7AEFF04E000F05FF8204600F05DF83F
:10282000257720680169C943C90617D4C168C9431F
:10283000C90613D46FF010010161082020772068C9
:10284000C06910F4407F204602D0FFF791FF04E0FA
:1028500000F042F8204600F040F825772068016932
:10286000C943C90708D1C168C943C90704D1891E32
:102870000161204600F032F820680169C943090669
:1028800009D4C168C943090605D46FF0800101610C
:102890002046FFF746FC20680169C943490609D470
:1028A000C168C943490605D46FF040010161204663
:1028B00000F015F820680169C94389060BD4C16886
:1028C000C943890607D46FF0200101612046BDE8A5
:1028D0007040FFF727BC70BD704770477047704766
:1028E0007047000070B5026804461068D1685369EB
:1028F00010F00F0F50D003F0010501F4907635432E
:102900005DD0C20705D0CA0503D5E26B42F00102D3
:10291000E263420705D5DA0703D0E26B42F0020218
:10292000E263820705D5DA0703D0E26B42F00402C6
:10293000E263020705D5DA0703D0E26B42F0080232
:10294000E263E26B002A33D0800604D5880602D504
:10295000204601F0E5F920684069E16BC0F3801082
:10296000090700D428B3204601F0CCF9206841695A
:1029700049061AD5416921F040014161606BA0B15F
:102980001B494163606BFEF71DFC002810D0606B93
:10299000416BBDE870400847830610D58B060ED505
:1029A0002046BDE8704001F0BBB92046FFF798FF14
:1029B00070BD2046FFF794FF0020E06370BD030662
:1029C00006D50B0604D52046BDE8704001F0F8BAE4
:1029D0004006F3D54806F1D5D168204621F04001E4
:1029E000D160202184F8391000F0C3F870BD0000D8
:1029F000F53C000870B5040020D0A06930490028DB
:102A0000304A314B20681BD088420AD0904208D00F
:102A1000984206D040F20F112CA002F03FFBA069B3
:102A2000C8B1A069B0F5807F15D0B0F5007F12D095
:102A3000B0F5407F0FD04FF4887109E0012070BDE0
:102A4000884208D0904206D0984204D04FF48A7150
:102A50001EA002F023FBA06838B1B0F5805F04D05F
:102A60004FF48B7119A002F019FB94F8390000257E
:102A700020B984F83850204600F046F8242084F825
:102A800039002068C16821F40051C160204601F07E
:102A900093F92068016921F490410161206841693E
:102AA00021F02A0141612068C16841F40051C160F0
:102AB000E563202084F8390084F83A00002070BDD6
:102AC0000038014000440040004800402E2E2F44B2
:102AD0007269766572732F53544D3332463178786C
:102AE0005F48414C5F4472697665722F5372632F61
:102AF00073746D3332663178785F68616C5F7561CD
:102B000072742E630000000010B50068154986B08D
:102B1000884224D11448C16941F40031C161C069BF
:102B2000124C00F400300490042000900220019028
:102B30000320039069462046FEF7A2FB00210820EF
:102B4000CDE90001029169462046FEF799FB00227B
:102B500011462620FEF742FE2620FEF70FFE06B0A5
:102B600010BD000000440040001002400008014079
:102B700070477047FEE700001FB5802000900020DE
:102B800001900120054C029069462046FEF778FB33
:102B900069462046FEF774FB1FBD0000000C014093
:102BA0001FB580200090012001900020029003209A
:102BB000054C039069462046FEF762FB69462046B5
:102BC000FEF75EFB1FBD0000000C014070B5012246
:102BD0000B4D140221462846FEF712FD0122560233
:102BE00031462846FEF70CFD002231462846FEF706
:102BF00007FD21462846BDE870400022FEF700BDD3
:102C0000000C014070B5094C012211022046FEF76C
:102C1000F7FC6515002229462046FEF7F1FC2946FF
:102C20002046BDE870400122FEF7EABC000C0140DE
:102C300070B50122064D140221462846FEF7E0FC3D
:102C400021462846BDE870400022FEF7D9BC0000AE
:102C5000000C014010B58AB0FEF708FD204C216A37
:102C6000401AB0F5967F39D9FEF700FD20621D4C61
:102C70001DA1A07900906379227902A801F08CFD52
:102C80000D2302AA0121002000F0BEFBE078009095
:102C9000637822781AA102A801F07EFD0D2302AA12
:102CA0000321002000F0B0FBE17AA07ACDE9000119
:102CB000237AE27918A102A801F06EFD0D2302AA81
:102CC0000521002000F0A0FB18A102A801F064FD7E
:102CD0000D2302AA0721502000F096FB0AB010BD78
:102CE000000000204303002054696D653E3A253002
:102CF00032643A253032643A2530326400000000F4
:102D0000446174653E3A3230253032642F253032CA
:102D1000642F25303264000054656D703E3A25639F
:102D200025632E2563256343000000002D3E4D657D
:102D30006E75000010B502F0B3F978B100210320E0
:102D400001F066FC02F0ACF950B10021042001F062
:102D50005FFC02F0A5F928B1012104E00121EEE7B2
:102D60000121F3E70021052001F052FC02F098F95F
:102D7000012825D000210A2001F04AFC02F090F938
:102D800002281FD000210B2001F042FC02F088F93C
:102D9000032819D00021112001F03AFC02F080F93B
:102DA000042813D00021122001F032FC02F078F93F
:102DB00005280DD00021BDE810400C2001F028BCF2
:102DC0000121D8E70121DEE70121E4E70121EAE75B
:102DD0000121F0E72DE9F041FEF748FC104C114EBF
:102DE0004FF40055E16941F29237401A41F28831BF
:102DF000884208D9FEF73AFCE169401AB84202D28B
:102E00007561BDE8F081FEF731FCE169401AB84216
:102E100003D9FEF72BFCE061F3E73561F1E7000031
:102E20000000002000100140062805D2012901D031
:102E3000002901D1014A1154704700007802002096
:102E40002DE9F047DFF88080204E4FF00A0998F80E
:102E5000050009282FD17179B1FBF9F209FB121095
:102E600048BB00245FF0050504EBD477C7F34700A7
:102E70000121FFF7D9FFA5EB6700C0B20121FFF7E1
:102E8000D3FF3220FEF7EAF9641C062CECDB0024A9
:102E900004EBD477C7F347000021FFF7C5FFA5EB8C
:102EA0006700C0B20021FFF7BFFF3220FEF7D6F95E
:102EB000641C062CECDB7179B1FBF9F209FB1211F1
:102EC00088F80510BDE8F0870000002043030020CB
:102ED0002DE9F0412F4886B0816941F010018161F0
:102EE000816901F010010491816941F02001816143
:102EF000816901F020010491816941F0040181613F
:102F0000816901F004010491816941F00801816146
:102F10008069012200F008001F4F540304902146ED
:102F20003846FEF76DFBDFF8748001224EF2C031A7
:102F30004046FEF765FB009401AA01240025032604
:102F400082E8700069463846FEF79AF9F020CDE92C
:102F50000005694602941248FEF792F9CDE9004552
:102F6000694640460294FEF78BF94FF460408DE8C5
:102F7000710069464046FEF783F94FF470708DE8A2
:102F800031000220039069464046FEF779F906B009
:102F9000BDE8F0810010024000100140000C01402B
:102FA0000008014010B5184886B016490160462156
:102FB0000024C0E9011440F2E731C0E90314446180
:102FC0008461FFF72FF918B1402110A001F0E2FB56
:102FD0004FF48050009069460B48FFF7F3F918B1A1
:102FE00046210AA001F0D6FB049404A906480594E2
:102FF000FFF79AF8002803D04D2104A001F0CAFB86
:1030000006B010BD002C0140900200202E2E2F4350
:103010006F72652F5372632F74696D2E6300000009
:103020000D4810B50B4901604FF4E13141600021BA
:1030300081600C22C160C0E904128161C161FFF7A7
:10304000D9FC002805D0BDE81040422103A001F0C2
:10305000A1BB10BD00440040D00200202E2E2F4303
:103060006F72652F5372632F75736172742E6300D4
:1030700070B5324C4FF00D03E079C0B130A203219E
:10308000002000F0C1F9E0794FF00D03012810D0C5
:103090002EA20521002000F0B7F902F001F800256A
:1030A000062815D2DFE800F014072215313129A2D5
:1030B000E5E72BA2EDE7E07910B10020E07103E035
:1030C0000120FBE7FFF736FE01F0EAFF0128F9D007
:1030D00070BD657002E000BFFFF72CFE01F0E0FF5D
:1030E0000328F9D000F098F8E57104E0E07910B118
:1030F0000020E07104E00120FBE700BFFFF71AFEAB
:1031000001F0CEFF0228F9D070BDE07910B101289E
:1031100008D101E0022000E00620607002E000BF5C
:10312000FFF708FE01F0BCFF0528F9D001F0B8FF59
:103130000428F5D000F070F8E57170BD00000020A3
:10314000202054494D452644415445002020574CE9
:10315000414E00002D3E54494D4526444154450002
:103160002D3E574C414E0000FEE770470907090EFF
:10317000002806DA00F00F0000F1E02080F8141DAE
:10318000704700F1E02080F80014704710B5164C2D
:10319000A07920BB01F084FF08B301F081FF032870
:1031A00004D004280AD0052816D10DE02078032881
:1031B00002D0401C20700FE00020FBE7207808B10F
:1031C000401EF7E70320F5E70120607001F068FF7B
:1031D0000528FBD000F020F8002000F02BFF01F0C4
:1031E0005FFFA07110BD000000000020094A30B14F
:1031F000012803D159B1002082F86B00704721B13A
:103200005FF0000082F84B0070470120FAE70120D0
:10321000F2E700005403002070B50024002104F1FF
:10322000B00000F00CF90021084600F008F9002178
:10323000102000F004F900250121002000F0FFF823
:103240006D1CEDB2802DF7D3641CE4B2082CE5D3DD
:1032500070BD2DE9F04798461746824600260C4679
:10326000DDF8209011E02146504600F087F85546E1
:1032700007E019F806000121761C00F0E0F86D1C4B
:10328000EDB2BD42F5D3641CE4B24445EBD3BDE8D6
:10329000F08710B5C820FDF7E1FF0021AE2000F057
:1032A000CEF80021084600F0CAF80021102000F0F6
:1032B000C6F80021402000F0C2F80021B02000F044
:1032C000BEF80021812000F0BAF80021FF2000F0B4
:1032D000B6F80021A12000F0B2F80021A62000F0ED
:1032E000AEF80021A82000F0AAF800213F2000F04D
:1032F000A6F80021C82000F0A2F80021D32000F099
:103300009EF80021084600F09AF80021D52000F030
:1033100096F80021802000F092F80021D82000F0DB
:103320008EF80021052000F08AF80021D92000F055
:1033300086F80021F12000F082F80021DA2000F068
:103340007EF80021122000F07AF80021DB2000F046
:1033500076F80021302000F072F800218D2000F076
:103360006EF80021142000F06AF80021AF2000F070
:1033700066F8BDE81040C820FDF770BF10B50A46DA
:103380000446002102F1B00000F059F8102040EA94
:103390001410002100F053F804F00F00BDE81040B5
:1033A000002100F04CB800002DE9F041203A002443
:1033B0000D460646D7B27F2802D900268D1CEDB2F5
:1033C000102B2946304610D0FFF7D8FF0D4907EBE8
:1033D000470001EB40050121285D00F030F8641C36
:1033E000E4B2062CF7D3BDE8F081FFF7C7FF6D1CF0
:1033F000E9B23046FFF7C2FF641CE4B2082CF7D3F1
:10340000F1E70000480000202DE9F04198461746FA
:103410000E46044600250DE0434631462046FFF7A0
:10342000C3FF0834E4B2782C02D90024B61CF6B2EB
:103430006D1CEDB27A5D002AEED1BDE8F081C0B21C
:1034400009B101F090B901F077B9704770B58AB051
:1034500015460E460446142211A16846FCF772FE7A
:10346000142214A105A8FCF76DFE641E062C13D2CD
:10347000032E11D2012D01D0002D0DD104EB4400FB
:103480003044C0B255B1002105AA0F4B125C1DF8A3
:10349000000003EB001011540AB070BD0121F3E7E6
:1034A0000808080909090909090808080909090992
:1034B00009090000000D0E070503000D0E0B0C0F8F
:1034C0000102060B0C0F0000540300202DE9FC4103
:1034D00025A1D1E90001CDE90001FEF7C7F8244E8E
:1034E0006C463169401A8E281FD9FEF7BFF830614B
:1034F000002006F12405295C052933D0491C2954F4
:10350000401C0628F7DBE87801220021205CFFF749
:103510009DFFA87800221146205CFFF797FFA8784E
:1035200001221146205CFFF791FF124D3179A879F5
:10353000884215D00627B0FBF7F107FB11000122E6
:10354000205C0221FFF782FF30790022B0FBF7F107
:1035500007FB11000221205CFFF778FFA87930718A
:10356000BDE8FC810021CAE7010203060504000052
:1035700000000020430300207047000070B5FEF7F4
:1035800075F8144CA169401AB0F5FA7F05D80121ED
:103590000020FFF72BFE01210CE0FEF767F8A16980
:1035A0004FF47A75401AA84209D200210846FFF765
:1035B0001DFE0021BDE870400120FFF717BEFEF799
:1035C00055F8A169401AA84202D9FEF74FF8A06148
:1035D00070BD00000000002010B5FEF74DF8BDE8FA
:1035E0001040FEF79ABD30B58FB001210804CDE937
:1035F00000100024029402250491CDE907504FF4F5
:10360000E01009906846FEF703FB00B1FEE70F20CB
:10361000CDE90A054FF48060CDE90C4002210AA8EB
:103620000E94FEF76BF900B1FEE7FEF795FA4FF442
:103630007A71B0FBF1F0FEF75CFD0420FEF726FD89
:1036400000221146501EFEF7C9F80FB030BD000031
:103650000D48016841F00101016041680B4A1140C9
:10366000416001680A4A11400160016821F480212B
:103670000160416821F4FE0141604FF41F01816047
:103680000449C00308607047001002400000FFF8C2
:10369000FFFFF6FE08ED00E010B50348FFF769F8FC
:1036A000BDE8104000F022BE90020020F0B5026894
:1036B000164B174C174D4FF08047984205D0B84233
:1036C00003D0A04201D0A84203D122F070064A687C
:1036D0003243984205D0B84203D0A04201D0A8425C
:1036E00003D122F44074CA68224322F080044A695C
:1036F000224302608A68C2620A688262984201D1EB
:103700000969016301214161F0BD0000002C014005
:10371000000400400008004010B5846842EA03221B
:1037200024F47F440A432243826010BD826822F061
:1037300070020A4342F007018160704710B5036AC6
:10374000046A24F001040462846924F0F00444EA69
:10375000021423F00A020A438461026210BD10B50C
:10376000036A23F0100303628369046A23F470433D
:1037700043EA023224F0A00343EA011182610162AC
:1037800010BD000070B53B4C4FF00D03207A10B314
:1037900039A203210020FFF737FE207A4FF00D03F6
:1037A00001281AD037A205210020FFF72DFE207A2C
:1037B0004FF00D03022812D035A207210020FFF799
:1037C00023FE01F06DFC0025062817D2DFE800F08B
:1037D00016092417353531A2DBE733A2E3E735A21A
:1037E000EBE7207A08B1401E00E00220207201E0E1
:1037F000FFF7A0FA01F054FC0128F9D070BD0120B8
:10380000607001E0FFF796FA01F04AFC0328F9D056
:10381000FFF702FD257202E0207A022802D2207A08
:10382000401C00E00020207202E000BFFFF782FA97
:1038300001F036FC0228F9D070BD207A20B10128B1
:1038400004D002280AD103E0042002E0032000E0B3
:103850000520607002E000BFFFF76CFA01F020FC69
:103860000528F9D001F01CFC0428F5D0FFF7D4FCA2
:10387000257270BD00000020202053657420446133
:103880007465000020205365742054696D65000044
:103890002020536574204461790000002D3E53655B
:1038A00074204461746500002D3E53657420546992
:1038B0006D6500002D3E5365742044617900000061
:1038C00070B5AC4D8AB0A87A30B90120A872112227
:1038D000A949AA48FCF736FCA84CA9A1A0790090F8
:1038E0006379227901A800F057FF0C2301AA032174
:1038F0000020FFF789FD687A06282FD2DFE800F064
:1039000003062225282B0C23A2A201E00C23A5A24A
:1039100004210020FFF778FD687A052823D90628BE
:103920004FF00C031DD0A3A207210020FFF76CFD70
:1039300001F0B6FB0A21062871D2DFE800F070170B
:1039400075C2D4E80C239FA2E2E70C23A1A2DFE713
:103950000C23A4A2DCE70C23A6A2D9E70C23A9A27E
:10396000D6E7ACA2E0E70C23AEA2DDE7687A062832
:1039700056D2DFE800F0030F1E2A39452079A0F166
:1039800014020A2A04D2B0FBF1F201FB120059E042
:103990000A3057E02079B0FBF1F201FB1202092A4C
:1039A00001D0401C4EE0B0FBF1F000EB8000400085
:1039B00048E06079A0F132020A2A04D2B0FBF1F2A9
:1039C00001FB120055E00A3053E06079B0FBF1F2E0
:1039D00001FB1202092A01D0401C4AE0B0FBF1F0C1
:1039E00000EB8000400044E0A079A0F132020A2AF6
:1039F00004D2B0FBF1F201FB120051E00A304FE0BB
:103A0000A079B0FBF1F201FB1202092A01D0401C9F
:103A100046E0B0FBF1F000EB8000400040E098E0B1
:103A2000C820FDF71BFC94E0687A0628F8D2DFE88E
:103A300000F0030B1A22313920790A2801D2143000
:103A400000E00A382071EBE72079B0FBF1F201FBCE
:103A500012020AB1401EF5E7B0FBF1F000EB800066
:103A600040000930EEE760790A2801D2323000E0E8
:103A70000A386071D4E76079B0FBF1F201FB120201
:103A80000AB1401EF5E7B0FBF1F000EB800040000A
:103A90000930EEE7A0790A2801D2323000E00A3876
:103AA000A071BDE7A079B0FBF1F201FB12020AB1EF
:103AB000401EF5E7B0FBF1F000EB8000400009305C
:103AC000EEE7687A08B1401E00E00720687201E066
:103AD000FFF730F901F0E4FA0128F9D001F0E0FA3B
:103AE0000328F5D035E0687A072801D2401C00E0B1
:103AF0000020687202E000BFFFF71CF901F0D0FA65
:103B00000228F9D001F0CCFA0428F5D021E0687A37
:103B10000026062802D0072814D10DE000F08AF80C
:103B200015482179017161794171A1798171002074
:103B3000FCF782FF6E7001E002206870AE7201E057
:103B4000FFF7F8F801F0ACFA0528F9D0FFF764FBAD
:103B50006E722079172801D91720207161793B20D6
:103B60003B2900D96071A1793B2900D9A0710AB025
:103B700070BD00000000002043030020100300205F
:103B800020202020253032643A253032643A253016
:103B900032640000202020205E20202020202020D1
:103BA0002000000020202020205E20202020202037
:103BB000200000002020536176652020202D3E4209
:103BC00061636B00202020202020205E2020202008
:103BD0002000000020202020202020205E20202007
:103BE00020000000202020202020202020205E20F7
:103BF0002000000020202020202020202020205EE7
:103C00002000000020202020202020202020202014
:103C1000200000002D3E53617665202020202042A8
:103C200061636B00202053617665202020202042B4
:103C300061636B0010B50120FCF7FEFE2B480A21E2
:103C40002B4A8379B3FBF1F430349471B3FBF1F474
:103C500001FB14333033D3714379B3FBF1F43034C7
:103C6000D470B3FBF1F401FB1433303313710379D7
:103C7000B3FBF1F430341470B3FBF1F401FB1433F3
:103C800030335370C3780932B3FBF1F4303414721B
:103C9000B3FBF1F401FB1433303353724378B3FBBD
:103CA000F1F430345471B3FBF1F401FB14333033CD
:103CB0009371322313703023537010F8023BB3FB1F
:103CC000F1F430349470B3FBF1F401FB143330336E
:103CD000D37010F8053BB3FBF1F401FB1431303124
:103CE000D172BDE81040FCF771BF00004303002013
:103CF0003100002010B5406A0021C185C184FEF763
:103D0000EFFD10BD0168CA6822F49072CA600168B4
:103D10004A6922F001024A61202180F83A10704776
:103D200010B590F83A10222901D0022010BD816808
:103D3000B1F5805F11D00169002901681FD0496881
:103D400001F07F03816A4A1C82620B70C18D491E9B
:103D50000904090CC18518D02BE00269816A002A88
:103D60000268526805D0D2B20A80816A491C816219
:103D7000ECE7C2F308020A80816A891CF7E74A6807
:103D8000816A4B1C83620A70E0E70168CA6822F00E
:103D90002002CA600168CA6822F48072CA600168A1
:103DA0004A6922F001024A61202180F83A10FEF7A8
:103DB000DFFE002010BD00002DE9F0410446406800
:103DC0006E49884204D340F6A7116DA001F066F950
:103DD000E06838B1B0F5005F04D040F6A81168A0E3
:103DE00001F05CF9206950B1B0F5806F07D0B0F5F3
:103DF000C06F04D040F6A91161A001F04FF96069CD
:103E00004FF6F371084200D120B940F6AA115CA028
:103E100001F044F920680169E26821F4405111433E
:103E200001612169A0680843616908432168CA6883
:103E300041F20C639A430243CA6020684169A26957
:103E400021F44071114341615C49206864253226A8
:103E500088423CD1FDF796FE00EBC00101EB00105B
:103E600061688900B0FBF1F7FDF78CFE00EBC00143
:103E700001EB00106168B0468900B0FBF1F0B0FBC7
:103E8000F5F06FF01801484307EB800106EB0110D5
:103E9000B0FBF5F000F0F006FDF774FE00EBC0019A
:103EA00001EB001061688900B0FBF1F0B0FBF5F0A8
:103EB00006EB0016FDF766FE00EBC00101EB0010FB
:103EC00061688900B0FBF1F7FDF75CFE3BE0FDF7B0
:103ED00049FE00EBC00101EB001061688900B0FBF6
:103EE000F1F7FDF73FFE00EBC00101EB0010616848
:103EF000B0468900B0FBF1F0B0FBF5F06FF01801AF
:103F0000484307EB800106EB0110B0FBF5F000F031
:103F1000F006FDF727FE00EBC00101EB0010616821
:103F20008900B0FBF1F0B0FBF5F006EB0016FDF7F1
:103F300019FE00EBC00101EB001061688900B0FBC5
:103F4000F1F7FDF70FFE00EBC00101EB0010616817
:103F50008900B0FBF1F0B0FBF5F06FF018014843B9
:103F600007EB800108EB0110B0FBF5F0216800F0D1
:103F70000F0030448860BDE8F081000021AA4400B1
:103F80002E2E2F447269766572732F53544D33323F
:103F9000463178785F48414C5F4472697665722F8C
:103FA0005372632F73746D3332663178785F686152
:103FB0006C5F756172742E63000000000038014070
:103FC00090F83910212901D0022070478168B1F59D
:103FD000805F016A0BD04A1C026202680978516056
:103FE000C18C491E0904090CC1840ED017E0098850
:103FF0000268C1F30801516001690029016A02D019
:10400000491C0162ECE7891CFBE70168CA6822F0E1
:104010008002CA600068C16841F04001C1600020B0
:10402000704700000148FEF75DBC0000D002002090
:10403000FEE7000030B50D4C0022002104EB021316
:1040400060B100255D54491C1029F9DB521C0A2A75
:10405000F3DB074A002118B1012302E00125F1E753
:1040600000235354491C0629F5DB30BD54030020BE
:104070007802002000F0F0B810B5264C207830B15E
:10408000012811D0022812D003281CD118E000F01A
:1040900075F9FDF743F8FEF7D3FEFFF717FAFEF7C1
:1040A00049FEFFF76BFA0EE000F038F901E000F08E
:1040B0008BFAFDF733F8FEF7C3FEFEF73BFE02E096
:1040C0000020FFF7B7FF607807281BD2DFE800F079
:1040D00004090C0F12151800FEF7BCFDFFF756F887
:1040E00010E0FEF7C5FF0DE0FFF74CFB0AE0FFF71D
:1040F000E7FB07E0FCF79AFD04E0FCF735FF01E081
:104100000020607000F0BEF9FEF764FEBDE81040CC
:10411000FDF746B80000002038B52C48FEF710F92E
:10412000FFF77AF82A4800210090082380220846E9
:10413000FFF78FF85FF0000404EBD47020F001006B
:10414000201AC1B2002000F063FA6420FDF786F85F
:10415000641C0A2CF0DBFFF75FF81E48002100907A
:10416000082380220846FFF774F80024E0B20121FA
:1041700000F04EFA601FC0B2012100F02DF81420AB
:10418000FDF76CF8641C1A2CF0DB0120FFF752FFDE
:104190000024E0B20021FEF747FE641C062CF8DB89
:1041A0000024E0B20121FEF73FFE6420FDF756F83F
:1041B000641C062CF5DB4FF4FA70FDF74FF8FFF79F
:1041C0002BF8BDE838400020FFF734BF90020020F4
:1041D000025100080255000830B58BB00D46044668
:1041E000142210A16846FBF7ADFF142212A105A806
:1041F000FBF7A8FF601E142810D2012D10D0002D4F
:104200000CD1012005A90DEB0402214412F8012C68
:104210000E4B11F8011C03EB021288540BB030BD99
:104220000020EFE701010102020304040405060671
:10423000070808080909090908090A0809080809F6
:104240000A0808090808090A0408090A5403002092
:104250000020FFF7EFBE000010B50A4C084904F13A
:104260000C02207801EB001100F00EF82078401CC1
:10427000C0B22070092801D90020207010BD0000B4
:10428000540300206C02002070B588B014460D461F
:10429000064620220DA16846FBF754FF0DEB0601F0
:1042A00000206B460874295C1954401C1028FADB66
:1042B0001A20211811F81A1C1954401C2028F8DB68
:1042C000184600F0C1F808B070BD000001010101FE
:1042D00001010101010101010101010101010101CE
:1042E000010101010101000000000000FFF7C2BE52
:1042F000FFF7C2BE084810B5416821F0E06141F007
:1043000080714160FEF7C5FFFEF786FFFFF7A0FF53
:10431000BDE81040FFF700BF000001401CB50020C1
:1043200000900190144917208DF800000A780A20A7
:10433000B2FBF0F38DF80130B2FBF0F300FB132277
:104340008DF802204A78B2FBF0F38DF80330B2FB0F
:10435000F0F300FB13228DF80420C978B1FBF0F2D2
:104360008DF80520B1FBF0F200FB12108DF806006D
:10437000684600F033F81CBD430300201CB5002044
:1043800015490090019088788DF800000A790A207C
:10439000B2FBF0F38DF80130B2FBF0F300FB132217
:1043A0008DF802204A79B2FBF0F38DF80330B2FBAE
:1043B000F0F300FB13228DF804208979B1FBF0F2B1
:1043C0008DF80520B1FBF0F200FB12108DF806000D
:1043D000684600F003F81CBD43030020F0B587B029
:1043E0000446182211A16846FBF7ACFE0022DFF854
:1043F00054E06E460123174600210EEB0210A55C27
:1044000016F805C003FA01F51CEA050F00EB0105DB
:1044100002D085F8213001E085F82170491C072978
:10442000EDDB521C072AE7DB07B0F0BD88DDA49462
:10443000D19282DC8090C083AA85A2E2C1ABC889F8
:10444000E087F7FF54030020F0B54FF400540C4A06
:104450000021260465009306C1F11F07C75D0FB157
:10446000146000E0166015601360491C89B22029B1
:10447000F2D34FF40040106000041060F0BD000063
:10448000100C014010B54F4C2078032874D0607890
:1044900038B10021022000F0BBF8607818B101218A
:1044A00002E00121F6E70021002000F0B1F8607879
:1044B000001F022801D2012100E00021092000F0A4
:1044C000A7F8207868B10021132000F0A1F8207827
:1044D00048B10021192000F09BF8207828B1012173
:1044E00004E00121F0E70121F4E70021182000F0A9
:1044F0008FF82078F0B30021062000F089F82078AA
:10450000C8B30021142000F083F8207801283BD0A4
:104510000021152000F07CF82078012836D00021F9
:104520000E2000F075F82078012831D000210820F5
:1045300000F06EF8207801282CD058B30021172005
:1045400000F066F82078022826D00021162000F01E
:104550005FF82078022821D00021072000F058F8C9
:10456000207802281CD00021102000F051F820787B
:10457000032802E004E005E023E013D0012112E06B
:104580000121B9E70121BDE70121C2E70121C7E708
:104590000121CCE70121D2E70121D7E70121DCE7A6
:1045A0000121E1E700210D2000F032F820780328F6
:1045B00001D0012100E00021BDE810400F2000F0F3
:1045C00027B810BD000000201CB50020009001900D
:1045D0000E4817218DF80010C279303A8DF801206D
:1045E000027A303A8DF80220827A303A8DF8032030
:1045F000C07A30388DF804008DF805100C208DF845
:1046000006006846FFF7EAFE1CBD000043030020D9
:1046100030B587B00D4604461C2228A16846FBF73A
:1046200091FD68460C2C06D81DB10021005D2A4A78
:1046300008E00121FAE7122C09D835B10021025D0A
:1046400025481030115407B030BD0121F7E7132C75
:1046500007D825B10021025D1F482030F2E7012173
:10466000F9E7152C07D825B10021025D1A48303032
:10467000E8E70121F9E7172C07D825B10021025DF1
:1046800015484030DEE70121F9E7182C09D0192C34
:10469000D9D185B15FF000010F489DF81920703025
:1046A000D0E735B15FF000010B489DF8182060306D
:1046B000C8E70121F8E70121EEE700000102060743
:1046C000090A0F0C000503040B0F000C010D020F6B
:1046D0000F000F000F0F0000540300202DE9F041E0
:1046E000144F04464FF48076002231463846FCF7DA
:1046F00087FF00254FF4007804F08000802816D052
:10470000002241463846FCF77BFF6006040E01227A
:1047100031463846FCF774FF002231463846FCF734
:104720006FFF6D1CEDB2082DE6D3BDE8F0810122CC
:10473000E7E70000000C014010B50446FEF746FA1A
:104740007820FFF7CBFFFEF773FA0020FFF7C6FFD4
:10475000FEF76EFA2046FFF7C1FFFEF769FABDE8E3
:104760001040FEF74FBA10B50446FEF72FFA782036
:10477000FFF7B4FFFEF75CFA4020FFF7AFFFFEF74C
:1047800057FA2046FFF7AAFFFEF752FABDE810409D
:10479000FEF738BAFEE700000FB4084B10B504A9C5
:1047A00002AA039800F0DEF8044602A9002000F0F7
:1047B00070FC204610BC5DF814FB0000935000080C
:1047C00002E008C8121F08C1002AFAD170477047DA
:1047D000002001E001C1121F002AFBD17047000038
:1047E0002DE9FF5F82B00021DDE90430020DDDF824
:1047F00040B0034318D044F61050A2F2FF324243B7
:104800001514119801281FD0A5EB0B00401C5FEA7E
:10481000000A4FF000064E4FDFF83891B046504680
:1048200015D5CAF1000413E0119801244AA3012808
:1048300001D16FEA0B010298119AC0E90031C0E979
:10484000024206B0BDE8F09FCBF10000DFE704466E
:104850000021404A491842EB0450CDE9001012E013
:10486000E00707D032463B4640464946FBF71DFE6F
:104870008046894632463B4610461946FBF715FEF0
:1048800006460F466410002CEAD1DDE90401DDE99B
:104890000023BAF1000F06DAFBF707FE42464B464B
:1048A000FBF703FE05E0FBF772FE42464B46FBF7C3
:1048B0006EFE04460E460022284BFBF7EFFE03D89F
:1048C0004FF0FF30014607E00022254B20463146DD
:1048D000FBF744FDFBF7CAFE102409E0002C0ADBBD
:1048E0000A220023FBF7D2FC039B30321A55641EC8
:1048F00050EA0102F2D1641C039AC4F1110314447A
:10490000119A012A03D0012208430DD10AE008437D
:1049100004D000204FF0110B119072E7A3EB0B05B0
:104920006D1E0DE05B4504DD4FF0000205F1010551
:1049300004E003DA4FF00002A5F10105002AECD0F3
:1049400002981199C0E90231C0E9004579E70000F9
:10495000000014400000F03F300000000000F04371
:104960000000E03F2DE9FF4F95B09B468946064683
:1049700000250FE2252877D100242746F84A012197
:10498000059400E0044316F8013F203B01FA03F0D0
:104990001042F7D130782A2811D06FF02F033078E9
:1049A000A0F13002092A16D8059A44F0020402EB5D
:1049B000820203EB42021044761C0590EFE759F89F
:1049C000042B0592002A03DA504244F40054059067
:1049D00044F00204761C30782E2816D116F8010F08
:1049E00044F004042A280DD06FF02F023078A0F193
:1049F0003003092B09D807EB870302EB4303C718E1
:104A0000761CF3E759F8047B761C30786C280FD0BD
:104A100006DC4C2817D068280DD06A2814D104E091
:104A2000742810D07A280FD10DE044F400140AE065
:104A300044F4801401E044F440147278824202D1BC
:104A400004F58014761C761C307866280BD013DCB5
:104A5000582877D009DC002875D04528F6D046289C
:104A6000F4D047281AD19DE118E0632835D0642896
:104A700079D0652812D195E1702873D008DC6728B9
:104A8000F1D069286FD06E280DD06F2806D1B5E01F
:104A900073282CD0752875D0782874D05A46179969
:104AA00090476D1C75E1C4F30250022809D0032819
:104AB0000DD0D9F8001004280DD00D6009F10409BB
:104AC00067E1D9F80010EA17C1E90052F6E7D9F812
:104AD00000100D80F2E70D70F0E719F8041B8DF857
:104AE000001000208DF80100EA46012003E059F88B
:104AF00004AB4FF0FF3061074FF0000102D40DE02E
:104B000008F101018846B9420FDA8045F8DB1AF84E
:104B100008100029F4D108E008F10101884681421B
:104B2000FADB1AF808100029F6D105985B46A0EBCD
:104B3000080721463846179A00F094FA284400EBFB
:104B4000080507E04DE029E10DE01AF8010B5A468F
:104B500017999047B8F10108F7D25B4621463846CD
:104B6000179A13E142E00A220092C4F302524FF076
:104B7000000A022A08D059F804CB032A4FEAEC7144
:104B80000AD00DE029E02AE009F1070121F007022F
:104B9000F2E802C1914609E00FFA8CFC4FEAEC7191
:104BA000042A03D14FFA8CFC4FEAEC71002907DA92
:104BB0000A460021DCF1000C61EB02012D2202E02B
:104BC000220504D52B228DF80420012203E0E20700
:104BD00001D02022F7E7904659E00A2102E0102296
:104BE0000DE010214FF0000A00910BE010224FF071
:104BF000000A44F004040827009203E008224FF062
:104C0000000A0092C4F30252022A05D059F804CBDC
:104C10000021032A08D009E009F1070121F0070269
:104C2000F2E802C1914605E01FFA8CFC042A01D18A
:104C30000CF0FF0C4FF00008220728D5702806D092
:104C4000009B83F0100353EA0A0305D00EE04022D4
:104C50008DF80420012208E05CEA010206D030222F
:104C60008DF804208DF8050002229046009B83F009
:104C7000080353EA0A030AD15CEA010201D1620780
:104C800005D530228DF804204FF001087F1E5828EA
:104C900004D034A003900EA802900DE036A0F9E7EE
:104CA00053466046009AFBF7F1FA84460398825C0B
:104CB0000298401E029002705CEA0100F0D1029856
:104CC00006A9081A00F1200A600702D524F48034EE
:104CD00000E00127574502DDA7EB0A0000E00020B5
:104CE00000EB0A01009005984144401A0590E0034A
:104CF00006D45B462146179A059800F0B3F905449F
:104D0000002706E001A85A46C05D179990476D1C20
:104D10007F1C4745F6DBE0030CD55B462146179A1E
:104D2000059800F09FF9054404E030205A46179991
:104D300090476D1C0099481E00900029F5DC08E0A2
:104D4000029802995A460078491C02911799904797
:104D50006D1CBAF10001AAF1010AF1DC65E1000065
:104D60000928010030313233343536373839616241
:104D70006364656600000000303132333435363705
:104D800038394142434445460000000000F058F9DC
:104D90000544761C307800287FF4ECAD19B0284625
:104DA000BDE8F08F620700D4062709F1070222F060
:104DB000070CFCE80223E14603F000485FEA080C18
:104DC00002D00FF2702C0DE05FEA045C02D50FF206
:104DD000682C07E05FEAC47C02D00FF2602C01E08F
:104DE000AFF2700C4FF0FF3823F00043CDF850C005
:104DF00065280CD006DC452809D046281DD0472858
:104E00003DD13DE0662818D067287ED138E00021EA
:104E1000112F01DB112000E0781CCDE9000106A96B
:104E20000EA8FFF7DDFCDDE90F010E9A03910021CA
:104E3000009207F1010A04914DE04FF00040009705
:104E4000CDE9011006A90EA8FFF7CAFCDDE90F02A3
:104E500003920E9B11990022DDF80CA0009304929E
:104E600011B9791C00EB010AB7EB0A0004D4C0F1B8
:104E7000FF3007F1010A0490AAEB0700019044E01B
:104E8000012F00DA01270021112F01DD112000E0A0
:104E90003846CDE9000106A90EA8FFF7A1FCDDE91F
:104EA0000F010E9A0391002104910092BA46210746
:104EB0000CD40399514500DA8A46BAF1010F05DD99
:104EC000009AAAF10101515C302908D0B84202DAF7
:104ED00010F1040F06DA0121CDE9011015E0AAF165
:104EE0000101E9E7002805DC049901440491AAEBDB
:104EF000000102E0411C514500DD8A460499401A38
:104F0000401C01904FF000400290200704D401980B
:104F1000504501DBCDF8048000208DF84F00029849
:104F20000DF14F07B0F1004F25D02B200E900298C5
:104F30004FF0020800280CDA404202902D200E901B
:104F400007E00A210298FBF78BF93031029007F84D
:104F5000011DB8F10001A8F10108F2DC0298002857
:104F6000EFD1791E0E980870307800F0200040F0E4
:104F7000450007F8020D12A8C01B00F1070814989D
:104F8000007800B1012000EB0A01019801EBE0710B
:104F900005984144401A401E0590E00306D45B4644
:104FA0002146179A059800F05DF80544149800789A
:104FB00018B15A46179990476D1CE00324D55B46FB
:104FC0002146179A059800F04DF805441CE0049816
:104FD000002807DBDDE90301884203DD0098405C1F
:104FE000179901E0179930205A469047049805F127
:104FF0000105401C04900198401E019004D12E2010
:105000005A46179990476D1CBAF10001AAF1010A9E
:10501000DDDC05E017F8010B5A46179990476D1C27
:10502000B8F10001A8F10108F4DC5B462146179AAB
:105030000598ABE62D0000002B00000020000000CA
:105040002DE9F041044600251E461746880404D485
:1050500005E039462020B0476D1C641EF9D528466E
:10506000BDE8F0812DE9F041044600251E4690463A
:10507000C80301D5302700E02027880404D505E0C7
:1050800041463846B0476D1C641EF9D52846BDE838
:10509000F0810A68531C0B60107070477047000065
:1050A0000E480068C00705D00D480168090603D402
:1050B00004207047032070470168490601D401208D
:1050C00070470168890601D4022070470068C00655
:1050D00001D405207047002070470000080C0140F3
:1050E00008080140FCF7D0FAFEF77DFAFDF7F0FE64
:1050F000FDF758FFFDF794FFFFF7FCF8FFF7F8F80E
:10510000FCE7FFFF03F7CF3FFFFFFF03FFFF1BFF9E
:10511000DFBF7FFF7FBFDFFF1BFFFF3FDFDFDFDF83
:105120003FFFFF1FE7F7FBFBFBFBF7EFFFFF03FF73
:10513000FF3FDFDFDFDF3FFFFF3FDFDFDFDFBFFFFF
:10514000FF03FFFF7FBFDFFFFF7F7F7F7F7F7FBF8B
:10515000CFF3F9C73FFFFF7F9F7FFF7F9F7F7F7F59
:105160007F7F7FFFFF3FFFFFFFFFFF3FFF7FBFBF4F
:10517000BF7FFFFFFFFFBFBFBFBF3FFF7FBFBFBFFF
:105180007FFF7F7F607F7F7F7E7977607F7F607F1B
:105190006F777B7C7B776F7F607F7F706E6E6E6ECC
:1051A000767F7F7C73776F6F6F6F777B7F7F607F9A
:1051B0007F706F6F6F6F707F7F706F6F6F6F777FB4
:1051C0007F607D7E7D736F7F7F7F7F7F7F7F7F7F2F
:1051D0007F7F7F7F7C637D7E7F7E7C7F7F7F7F7F05
:1051E0007F7F7F7F7F7F7C734F737C7F7F5F4F5795
:1051F0005B5C7F7F5F7F7F47797E7F7F605D5D5DEA
:10520000637F003F010101F151505050A000204048
:10521000804020000020000000101090503010004E
:10522000E0808080E000008040202040800000E09E
:10523000408000E0000000E02020A0A00000E0206E
:10524000202020C00000E020202020E00000E040DE
:105250008000E00000E02020A0A00000000000008E
:1052600000000800000040404000000408F000007A
:105270000000000000000000000000010101010129
:105280003F000000000000030202828281808080D3
:10529000838080800002000000020302028282807C
:1052A000838080808380800301010101030000036B
:1052B00040404143404040434242424340404342D9
:1052C00042424241404043424242424340404340C6
:1052D00040414340404342424243404040404040BE
:1052E00040404240404040404040404442414040B5
:1052F000404040404040404040404040404000002E
:10530000000000000000FC020101202030B0B0B01D
:10531000B0302020010102FC00FC020101202030FD
:10532000B0B0B0B0302020010102FC00000000004D
:1053300000C02010101020C00000E01010101060FD
:105340000000004020F00000E0101010E00000001D
:1053500000004020F0000020101010E000000000CD
:105360000000004020F000000000E0101010E000FD
:1053700000E0101010E00000E0101010E00000004D
:10538000000000000000FF000000008F002020202F
:1053900020008F00000000FF00FF000000008F00D1
:1053A00020202020008F00000000FF0000000000EF
:1053B000000708101414081700000C111111110E29
:1053C00000000000001F00000E1111110E0002026B
:1053D000020000001F00001018141310000000004D
:1053E00000000000001F00000000091212110F0051
:1053F000000E1111110E00000F1010100F00000010
:10540000000000000000FF000000808F809090905E
:1054100090808F80000000FF00FF000000808F80E0
:1054200090909090808F80000000FF0000000000AE
:10543000E42424C4040484840404840484048404CC
:10544000048484040404848404848404040484841C
:10545000E404040404E4848404048404040484044C
:1054600004840404C4242444042424E42424E4C43C
:10547000040404C4E4442424C404442424C40000D4
:105480000000007E40404146480800000101010143
:1054900001010000080806010001060808000001DB
:1054A00001010101010000080806010000000000E0
:1054B0000F01010000070808070007080708070098
:1054C000070A0A0B000F0000070A0A0B000708086A
:1054D0000F000000000F0808070001261806010051
:1054E00000040000040909060000000F00000F007E
:1054F000070807000F0408090600084C4B48404005
:105500007E001717171717171717171717171717DB
:10551000171717171717171717171717171717171B
:10552000171717171717171717171717171717170B
:1055300017171717171717171717171717171717FB
:1055400017171717171717171717171717171717EB
:1055500017171717171717171717171717171717DB
:1055600017171717171717171717171717171717CB
:105570001717274F9E3C78F0E0C080000000000025
:105580000000444444444444444444444444444463
:10559000444404040000000000000000000000C0BB
:1055A00038C0000000000000000000000000000003
:1055B00000000000000000000000000000000000EB
:1055C00000000000008040201000008040201000FB
:1055D000000080402010000000002020202020201B
:1055E00000000010204080000010204080000010CB
:1055F00020408000000102040913274F9E3C78F0F0
:10560000E0C00404040404040404040404040404C2
:10561000000000000000000000000000C03807018A
:1056200000010F708000000000000000000000007A
:1056300000C038C00000000000C038C000000000FA
:10564000000000020508102040020508102040005C
:1056500002050810204000000202222222222222FB
:1056600002020040201008050240201008050240F8
:1056700020100805020000000000000000010204E4
:10568000091340404040404040404040404040407E
:10569000404040404040404040603807010000002A
:1056A000000000000738C000000000000000C03803
:1056B000070100011FE000E01F0100010738604002
:1056C000404040404040404040404040404000005A
:1056D000008000008080808080C08080808080008A
:1056E00000000080808080808080808080000000BA
:1056F00000008080808080808080808080800000AA
:105700000000000000000000000000000000000099
:105710000000000000000000000000000000000089
:10572000000000000000011EE0000000E01E01007B
:105730000000000000010E01000000000000000059
:105740000000000000000000000000000000000059
:105750008080C33000FE82BAAAAAAABA82FE0000E4
:10576000000000FF8888888888888888FF000000FB
:105770000000FF2024E42424E4242424A4200000A6
:105780000000C890204080000000000000000000E1
:105790000000000000000000000000000000000009
:1057A0000000000000000000000F700F000000006B
:1057B00000000000000000000000000000000000E9
:1057C00000000000000000000000000000000000D9
:1057D00000001F0008281A0A2A3A0A0A1A28080094
:1057E00020100C0300000000000010201F0000002B
:1057F000100C0300003F1008000102050810100003
:105800000000070F1F3E7CF9F2E4C89020408000A2
:10581000000000000000FE121212020200FC84844C
:10582000848484FC0000FC141434549C0000008424
:1058300000000000FE808080808000FC000000FCF2
:1058400008102040FC0000040810E010080400FCD0
:1058500080808080FC000000FC949494848400008C
:10586000FC84848484CC0000FC10101010FC000028
:1058700000FC94949484840000FC08102040FC00F8
:1058800000000000000000000103070F1F3E7CF92C
:10589000F2E4E8E8E8E8E8E8E8E8E8E8E8E8E8E882
:1058A000E8E8E8E8E8E8E8E8E8E8E8E8E8E8E8E878
:1058B000E8E8E8E8E8E8E8E8E8E8E8E8E8E8E8E868
:1058C000E8E8E8E8E8E8E8E8E8E8E8E8E8E8E8E858
:1058D000E8E8E8E8E8E8E8E8E8E8E8E8E8E8E8E848
:1058E000E8E8E8E8E8E8E8E8E8E8E8E8E8E8E8E838
:1058F000E8E8E8E8E8E8E8E8E8E8E8E8E8E8E8E828
:10590000E8E80000000000000000010203040607B0
:105910000809000000000102030400003C590008CF
:105920000000002090020000EC070008205B000847
:105930009002002068050000D0470008012477018C
:1059400002030405063C30303A0311A00E32303118
:10595000332F31302F3230203757422F1A070211A0
:105960001B147F021116242A7F2A12166264081360
:1059700023263649552250430503341C22411C413D
:10598000221C2A15083E08141A0806320823A060B3
:105990002A0801211A600B11162010080402263E65
:1059A0005149453E1C427F4005156151494616212B
:1059B00041454B31161814127F10162745454539BD
:1059C000163C4A4949301C01710962163649494959
:1059D0003626064949291E4336362A56062B081410
:1059E000782A1401297E131408160201510906169B
:1059F000324959513E167C1211127C3A7F3C163EB8
:105A0000414141221A7F053A1C1212411E7F0909A9
:105A10000901181449497A1A7FA11A7F421A7F4E48
:105A20001E2040413F0112295B1B7F400111167F60
:105A3000020C027F3E7F0408107F483A3E3C1A0663
:105A40000C1C51215E0C141929461A4654123116A9
:105A500001017F01011A3F35123F1E1F2040201F08
:105A60000C1A380C1663140814631607087008071C
:105A700019EF234543198B211B552A0219781A4126
:105A80007D16040201020429712240290B111620FF
:105A900054545478167F484444382E3844444420A3
:105AA0000613487F1A3818121816087E0901021DBD
:105AB00018A4A4A4E425080404781B447D3B1D40DD
:105AC00080847D5F341028441B417F121C7C0418A5
:105AD0001E3A7C242948123816FC242424181A184B
